{
  "_format": "hh-sol-artifact-1",
  "contractName": "ProofOfArt",
  "sourceName": "contracts/ProofOfArt.sol",
  "abi": [
    {
      "anonymous": false,
      "inputs": [
        {
          "indexed": true,
          "internalType": "bytes32",
          "name": "recordId",
          "type": "bytes32"
        },
        {
          "indexed": true,
          "internalType": "address",
          "name": "creator",
          "type": "address"
        },
        {
          "indexed": false,
          "internalType": "string",
          "name": "ipfsCid",
          "type": "string"
        }
      ],
      "name": "ArtStored",
      "type": "event"
    },
    {
      "inputs": [
        {
          "internalType": "bytes32",
          "name": "recordId",
          "type": "bytes32"
        }
      ],
      "name": "getArt",
      "outputs": [
        {
          "components": [
            {
              "internalType": "string",
              "name": "ipfsCid",
              "type": "string"
            },
            {
              "internalType": "string",
              "name": "imageHash",
              "type": "string"
            },
            {
              "internalType": "string",
              "name": "prompt",
              "type": "string"
            },
            {
              "internalType": "address",
              "name": "creator",
              "type": "address"
            },
            {
              "internalType": "uint256",
              "name": "timestamp",
              "type": "uint256"
            }
          ],
          "internalType": "struct ProofOfArt.ArtRecord",
          "name": "",
          "type": "tuple"
        }
      ],
      "stateMutability": "view",
      "type": "function"
    },
    {
      "inputs": [
        {
          "internalType": "bytes32",
          "name": "",
          "type": "bytes32"
        }
      ],
      "name": "records",
      "outputs": [
        {
          "internalType": "string",
          "name": "ipfsCid",
          "type": "string"
        },
        {
          "internalType": "string",
          "name": "imageHash",
          "type": "string"
        },
        {
          "internalType": "string",
          "name": "prompt",
          "type": "string"
        },
        {
          "internalType": "address",
          "name": "creator",
          "type": "address"
        },
        {
          "internalType": "uint256",
          "name": "timestamp",
          "type": "uint256"
        }
      ],
      "stateMutability": "view",
      "type": "function"
    },
    {
      "inputs": [
        {
          "internalType": "string",
          "name": "ipfsCid",
          "type": "string"
        },
        {
          "internalType": "string",
          "name": "imageHash",
          "type": "string"
        },
        {
          "internalType": "string",
          "name": "prompt",
          "type": "string"
        }
      ],
      "name": "storeArt",
      "outputs": [
        {
          "internalType": "bytes32",
          "name": "",
          "type": "bytes32"
        }
      ],
      "stateMutability": "nonpayable",
      "type": "function"
    }
  ],
  "bytecode": "0x6080604052348015600f57600080fd5b50610faf8061001f6000396000f3fe608060405234801561001057600080fd5b50600436106100415760003560e01c806301e64725146100465780636486b1991461007a578063eb6312ac146100aa575b600080fd5b610060600480360381019061005b9190610708565b6100da565b60405161007195949392919061081f565b60405180910390f35b610094600480360381019061008f91906109bc565b6102c8565b6040516100a19190610a72565b60405180910390f35b6100c460048036038101906100bf9190610708565b610437565b6040516100d19190610b79565b60405180910390f35b60006020528060005260406000206000915090508060000180546100fd90610bca565b80601f016020809104026020016040519081016040528092919081815260200182805461012990610bca565b80156101765780601f1061014b57610100808354040283529160200191610176565b820191906000526020600020905b81548152906001019060200180831161015957829003601f168201915b50505050509080600101805461018b90610bca565b80601f01602080910402602001604051908101604052809291908181526020018280546101b790610bca565b80156102045780601f106101d957610100808354040283529160200191610204565b820191906000526020600020905b8154815290600101906020018083116101e757829003601f168201915b50505050509080600201805461021990610bca565b80601f016020809104026020016040519081016040528092919081815260200182805461024590610bca565b80156102925780601f1061026757610100808354040283529160200191610292565b820191906000526020600020905b81548152906001019060200180831161027557829003601f168201915b5050505050908060030160009054906101000a900473ffffffffffffffffffffffffffffffffffffffff16908060040154905085565b6000803385426040516020016102e093929190610ca0565b6040516020818303038152906040528051906020012090506040518060a001604052808681526020018581526020018481526020013373ffffffffffffffffffffffffffffffffffffffff16815260200142815250600080838152602001908152602001600020600082015181600001908161035c9190610e85565b5060208201518160010190816103729190610e85565b5060408201518160020190816103889190610e85565b5060608201518160030160006101000a81548173ffffffffffffffffffffffffffffffffffffffff021916908373ffffffffffffffffffffffffffffffffffffffff160217905550608082015181600401559050503373ffffffffffffffffffffffffffffffffffffffff16817f760fa8bc916e4909ea096cd1da7e1054657e6811dc2397f85dd59eb15472511a876040516104249190610f57565b60405180910390a3809150509392505050565b61043f610679565b6000808381526020019081526020016000206040518060a001604052908160008201805461046c90610bca565b80601f016020809104026020016040519081016040528092919081815260200182805461049890610bca565b80156104e55780601f106104ba576101008083540402835291602001916104e5565b820191906000526020600020905b8154815290600101906020018083116104c857829003601f168201915b505050505081526020016001820180546104fe90610bca565b80601f016020809104026020016040519081016040528092919081815260200182805461052a90610bca565b80156105775780601f1061054c57610100808354040283529160200191610577565b820191906000526020600020905b81548152906001019060200180831161055a57829003601f168201915b5050505050815260200160028201805461059090610bca565b80601f01602080910402602001604051908101604052809291908181526020018280546105bc90610bca565b80156106095780601f106105de57610100808354040283529160200191610609565b820191906000526020600020905b8154815290600101906020018083116105ec57829003601f168201915b505050505081526020016003820160009054906101000a900473ffffffffffffffffffffffffffffffffffffffff1673ffffffffffffffffffffffffffffffffffffffff1673ffffffffffffffffffffffffffffffffffffffff1681526020016004820154815250509050919050565b6040518060a00160405280606081526020016060815260200160608152602001600073ffffffffffffffffffffffffffffffffffffffff168152602001600081525090565b6000604051905090565b600080fd5b600080fd5b6000819050919050565b6106e5816106d2565b81146106f057600080fd5b50565b600081359050610702816106dc565b92915050565b60006020828403121561071e5761071d6106c8565b5b600061072c848285016106f3565b91505092915050565b600081519050919050565b600082825260208201905092915050565b60005b8381101561076f578082015181840152602081019050610754565b60008484015250505050565b6000601f19601f8301169050919050565b600061079782610735565b6107a18185610740565b93506107b1818560208601610751565b6107ba8161077b565b840191505092915050565b600073ffffffffffffffffffffffffffffffffffffffff82169050919050565b60006107f0826107c5565b9050919050565b610800816107e5565b82525050565b6000819050919050565b61081981610806565b82525050565b600060a0820190508181036000830152610839818861078c565b9050818103602083015261084d818761078c565b90508181036040830152610861818661078c565b905061087060608301856107f7565b61087d6080830184610810565b9695505050505050565b600080fd5b600080fd5b7f4e487b7100000000000000000000000000000000000000000000000000000000600052604160045260246000fd5b6108c98261077b565b810181811067ffffffffffffffff821117156108e8576108e7610891565b5b80604052505050565b60006108fb6106be565b905061090782826108c0565b919050565b600067ffffffffffffffff82111561092757610926610891565b5b6109308261077b565b9050602081019050919050565b82818337600083830152505050565b600061095f61095a8461090c565b6108f1565b90508281526020810184848401111561097b5761097a61088c565b5b61098684828561093d565b509392505050565b600082601f8301126109a3576109a2610887565b5b81356109b384826020860161094c565b91505092915050565b6000806000606084860312156109d5576109d46106c8565b5b600084013567ffffffffffffffff8111156109f3576109f26106cd565b5b6109ff8682870161098e565b935050602084013567ffffffffffffffff811115610a2057610a1f6106cd565b5b610a2c8682870161098e565b925050604084013567ffffffffffffffff811115610a4d57610a4c6106cd565b5b610a598682870161098e565b9150509250925092565b610a6c816106d2565b82525050565b6000602082019050610a876000830184610a63565b92915050565b600082825260208201905092915050565b6000610aa982610735565b610ab38185610a8d565b9350610ac3818560208601610751565b610acc8161077b565b840191505092915050565b610ae0816107e5565b82525050565b610aef81610806565b82525050565b600060a0830160008301518482036000860152610b128282610a9e565b91505060208301518482036020860152610b2c8282610a9e565b91505060408301518482036040860152610b468282610a9e565b9150506060830151610b5b6060860182610ad7565b506080830151610b6e6080860182610ae6565b508091505092915050565b60006020820190508181036000830152610b938184610af5565b905092915050565b7f4e487b7100000000000000000000000000000000000000000000000000000000600052602260045260246000fd5b60006002820490506001821680610be257607f821691505b602082108103610bf557610bf4610b9b565b5b50919050565b60008160601b9050919050565b6000610c1382610bfb565b9050919050565b6000610c2582610c08565b9050919050565b610c3d610c38826107e5565b610c1a565b82525050565b600081905092915050565b6000610c5982610735565b610c638185610c43565b9350610c73818560208601610751565b80840191505092915050565b6000819050919050565b610c9a610c9582610806565b610c7f565b82525050565b6000610cac8286610c2c565b601482019150610cbc8285610c4e565b9150610cc88284610c89565b602082019150819050949350505050565b60008190508160005260206000209050919050565b60006020601f8301049050919050565b600082821b905092915050565b600060088302610d3b7fffffffffffffffffffffffffffffffffffffffffffffffffffffffffffffffff82610cfe565b610d458683610cfe565b95508019841693508086168417925050509392505050565b6000819050919050565b6000610d82610d7d610d7884610806565b610d5d565b610806565b9050919050565b6000819050919050565b610d9c83610d67565b610db0610da882610d89565b848454610d0b565b825550505050565b600090565b610dc5610db8565b610dd0818484610d93565b505050565b5b81811015610df457610de9600082610dbd565b600181019050610dd6565b5050565b601f821115610e3957610e0a81610cd9565b610e1384610cee565b81016020851015610e22578190505b610e36610e2e85610cee565b830182610dd5565b50505b505050565b600082821c905092915050565b6000610e5c60001984600802610e3e565b1980831691505092915050565b6000610e758383610e4b565b9150826002028217905092915050565b610e8e82610735565b67ffffffffffffffff811115610ea757610ea6610891565b5b610eb18254610bca565b610ebc828285610df8565b600060209050601f831160018114610eef5760008415610edd578287015190505b610ee78582610e69565b865550610f4f565b601f198416610efd86610cd9565b60005b82811015610f2557848901518255600182019150602085019450602081019050610f00565b86831015610f425784890151610f3e601f891682610e4b565b8355505b6001600288020188555050505b505050505050565b60006020820190508181036000830152610f71818461078c565b90509291505056fea26469706673582212200fdd34976d326ccf4089db4f31aa747f02122aad58b5224778f851184e2151e164736f6c634300081b0033",
  "linkReferences": {},
  "deployedLinkReferences": {}
}